:020000040800F2
:1000000078040020490100086D030008030300087C
:100010006903000891010008EB0A000800000000D5
:100020000000000000000000000000002D06000895
:100030009501000800000000250400086D07000875
:100040006301000863010008630100086301000800
:1000500063010008630100086301000863010008F0
:1000600063010008630100086301000863010008E0
:1000700063010008630100086301000863010008D0
:1000800063010008630100086301000863010008C0
:1000900063010008630100086301000863010008B0
:1000A00063010008630100086301000863010008A0
:1000B0006301000863010008630100086301000890
:1000C0006301000863010008630100086301000880
:1000D000630100086301000863010008D1070008FC
:1000E0006301000863010008630100086301000860
:1000F0006301000863010008630100086301000850
:10010000630100086301000863010008630100083F
:10011000630100086301000863010008630100082F
:10012000630100086301000863010008630100081F
:10013000DFF810D000F01AF8004800473D0B000827
:10014000AFF3008078040020064880470648004747
:10015000FEE7FEE7FEE7FEE7FEE7FEE7FEE7FEE777
:10016000FEE7FEE77107000831010008064C074D65
:1001700006E0E06840F0010394E807009847103477
:10018000AC42F6D3FFF7D8FFF40B0008140C0008BC
:1001900000BFFEE7704701B502E00098401E0090E6
:1001A00000980028F9D108BD10B504460C4800F0AD
:1001B000B3FA07E000BF4FF0E020006900F48030A0
:1001C0000028F8D0201EA4F10104F3D14FF0E02064
:1001D000006920F001004FF0E021086110BD00002F
:1001E000401901002DE9F0410246002500260020BB
:1001F00000230024002791F803C00CF00F0591F8AC
:1002000003C00CF0100CBCF1000F03D091F802C039
:100210004CEA050591F800C0BCF1000F31D014681C
:1002200000202BE04FF0010C0CFA00F3B1F800C0F5
:100230000CEA03069E4220D183004FF00F0C0CFA0B
:1002400003F7BC4305FA03FC4CEA040491F803C02D
:10025000BCF1280F06D14FF0010C0CFA00FCC2F8DB
:1002600014C00AE091F803C0BCF1480F05D14FF06B
:10027000010C0CFA00FCC2F810C0401C0828D1D3B5
:100280001460B1F800C0BCF1FF0F34DD54680020E9
:100290002EE000F1080C4FF0010808FA0CF3B1F859
:1002A00000C00CEA03069E4221D183004FF00F0CE0
:1002B0000CFA03F7BC4305FA03FC4CEA040491F87A
:1002C00003C0BCF1280F05D100F1080C08FA0CF8A6
:1002D000C2F8148091F803C0BCF1480F07D100F1B7
:1002E000080C4FF0010808FA0CF8C2F81080401C06
:1002F0000828CED35460BDE8F081416170470161A8
:10030000704700BFFEE7000008B50121082000F09B
:100310009BF82020ADF8000010208DF8030003208A
:100320008DF8020069460F48FFF75CFF0120ADF829
:10033000000069460B48FFF755FF0220ADF80000AA
:1003400069460848FFF74EFF20210648FFF7D7FF10
:1003500001210448FFF7D3FF02210248FFF7CFFF36
:1003600008BD0000000C014000BFFEE7704708B563
:100370004FF4A06000F04CF825208DF8000001201B
:100380008DF801008DF802008DF80300684600F03A
:1003900007F827208DF80000684600F001F808BD36
:1003A00070B5002100230F22C47804B3154C2468D3
:1003B00004F4E064C4F5E064210AC1F10403CA4016
:1003C000447804FA03F184781440214309010E4C67
:1003D0000678A155047804F01F050124AC40057887
:1003E0006D11AD0005F1E025C5F8004109E0047884
:1003F00004F01F050124AC40044D0678761145F841
:10040000264070BD0CED00E000E400E080E100E07B
:1004100002490143024A1160704700000000FA05DA
:100420000CED00E07047000029B1064AD269024392
:10043000044BDA6104E0034AD2698243014BDA617A
:10044000704700000010024029B1064A9269024339
:10045000044B9A6104E0034A92698243014B9A611A
:10046000704700000010024030B500210022002437
:1004700000232D4D6D6805F00C0121B1042905D034
:10048000082923D105E0294D056022E0274D0560AC
:100490001FE0254D6D6805F47012234D6D6805F45D
:1004A0008034022505EB92421CB9214D554305606D
:1004B0000BE01D4D6D6805F400351DB11C4D554315
:1004C000056002E0194D5543056002E0174D0560D7
:1004D00000BF00BF144D6D6805F0F0010909154D0E
:1004E0006B5C0568DD4045600F4D6D6805F4E061AB
:1004F000090A104D6B5C4568DD4085600A4D6D68EA
:1005000005F46051C90A0B4D6B5C4568DD40C56060
:10051000054D6D6805F44041890B074D6B5CC5685E
:10052000B5FBF3F5056130BD0010024000127A0002
:1005300000093D00430000205300002008B50121C0
:100540000820FFF781FF4020ADF8000010208DF853
:10055000030003208DF8020069460448FFF742FEBD
:1005600040210248FFF7C9FE08BD0000000C014011
:100570007EB5054601261E480088002836DD1D4848
:10058000FFF709FE1C48007801282FD100201A49E6
:100590000870002405E01948005D0DF80400601C97
:1005A000C4B20C2CF7DB0C21684600F029F8E8B93E
:1005B0009DF80400D0B99DF80000042816D19DF8DC
:1005C00001000C2812D19DF8020002280ED19DF8DE
:1005D000030020280AD1002405E0E01D1DF80000DA
:1005E0002855601CC4B2042CF7DB002630467EBDC3
:1005F00040000020F0490200420000205800002086
:1006000010B502460023002403E0105D4340601C47
:10061000C4B2481EA042F8DCD843C3B2481E105CE6
:10062000984201D1002010BD0120FCE7704710B5B1
:1006300000F002F810BD00000CB500200190009001
:100640003348006840F480303149086000BF3048CA
:10065000006800F4003000900198401C0190009860
:1006600018B90198B0F5A06FF1D12948006800F4DD
:10067000003010B10120009001E0002000900098AF
:10068000012843D12348006840F010002149086048
:100690000846006820F0030008600846006840F043
:1006A000020008601A4840681949486008464068D6
:1006B00048600846406840F48060486008464068EA
:1006C00020F47C1048600846406840F4E810486018
:1006D0000846006840F08070086000BF0C48006861
:1006E00000F000700028F9D00948406820F00300AD
:1006F000074948600846406840F00200486000BF73
:100700000348406800F00C000828F9D10CBD000037
:10071000001002400020024030B50146B1F1807F58
:1007200001D3012030BD21F07F40401E4FF0E02278
:10073000506150170F22002807DA13071D0E094BCE
:1007400000F00F04241F1D5503E013071C0E064B79
:100750001C5400BF00204FF0E02290610720106180
:100760000020DFE718ED00E000E400E07047000043
:1007700010B51348006840F00100114908600846B0
:100780004068104908400E494860084600680E4914
:1007900008400B4908600846006820F48020086083
:1007A0000846406820F4FE0048604FF41F0088604F
:1007B000FFF73DFF4FF000600449086010BD0000E6
:1007C000001002400000FFF8FFFFF6FE08ED00E019
:1007D00010B540F22551134800F0C3F800B311489A
:1007E00000F07AF9C4B210481049098844540F48FF
:1007F0000088401C0D49088008460088202801DD3B
:1008000000200880084840780C2808D10648407825
:1008100006490988884202D101200549087000BFB5
:1008200010BD00000048004058000020400000209B
:100830004200002021B1828942F40052828104E00A
:1008400082894DF6FF731A408281704700B585B0EA
:1008500001210420FFF7F8FD01218803FFF7F4FDD3
:1008600001210820FFF7F0FD01218804FFF7DCFDDE
:100870004FF40070ADF8100018208DF8130003201D
:100880008DF8120004A92C48FFF7ACFC4FF48060EF
:10089000ADF8100004208DF8130004A92648FFF7D6
:1008A000A1FC4FF48060ADF8100018208DF8130003
:1008B00003208DF8120004A92048FFF793FC4FF4A1
:1008C0000060ADF8100004208DF8130004A91B4847
:1008D000FFF788FC4FF4165000900020ADF804009C
:1008E000ADF80600ADF80800ADF80C000C20ADF82E
:1008F0000A006946124800F083F84FF41650009041
:100900006946104800F07CF8FFF731FD012240F203
:1009100025510B4800F04FF801210948FFF78AFFE5
:10092000012240F22551074800F045F80121054811
:10093000FFF780FF05B000BD00080140000C01403A
:10094000003801400048004002460020B1F5007F19
:1009500000D100BF13880B400BB1012000E0002044
:10096000704770B50246002400230025002040F6A1
:100970006A16B14200D100BFC1F3421501F01F0356
:10098000012606FA03F3012D02D19689334006E0D1
:10099000022D02D1168A334001E0968A33400C12B0
:1009A000012606FA04F41688344013B10CB1012074
:1009B00000E0002070BDF0B50346002400260025AD
:1009C000002040F66A17B94200D100BF1846C1F3B3
:1009D000421401F01F06012707FA06F5012C01D188
:1009E0000C3004E0022C01D1103000E014301AB1B8
:1009F00007682F43076002E00768AF430760F0BD58
:100A00002DE9F04786B005460E460024A24600BFF9
:100A1000A1460027B08900B100BF2F462C8A4CF6B2
:100A2000FF700440F08804432C82AC894EF6F3102A
:100A30000440B08831890843718908430443AC817C
:100A4000AC8A4FF6FF400440B0890443AC8201A851
:100A5000FFF70AFD1F48874202D1DDF810A001E030
:100A6000DDF80CA0A88900F4004040B10AEBCA00F0
:100A700000EB0A1031684900B0FBF1F807E00AEB1F
:100A8000CA0000EB0A1031688900B0FBF1F864205D
:100A9000B8FBF0F004012009642101FB1089A8894A
:100AA00000F4004040B1322000EBC900B0FBF1F08F
:100AB00000F00700044308E0322000EB0910642135
:100AC000B0FBF1F000F00F0004432C8106B0BDE84C
:100AD000F08700000038014001468888C0F3080014
:100AE0007047C1F308028280704700BFFEE72DE91E
:100AF000F04107460D46164600240CE0295D3846B5
:100B0000FFF7EFFF00BF80213846FFF71DFF0028E9
:100B1000F9D0601CC4B2B442F0DBBDE8F08102E061
:100B200008C8121F08C1002AFAD170477047002078
:100B300001E001C1121F002AFBD1704708B5FFF781
:100B4000E3FBFFF783FEFFF7F9FC45E06846FFF79C
:100B50000FFD0546002D3ED10C2220492048FFF70D
:100B6000C6FF002401260127002008E01B49095C7C
:100B70001C4A125C914200D00026411CC8B20B28CE
:100B8000F4DB002008E01549095C174A125C914229
:100B900000D00027411CC8B20B28F4DB06B95FB1B6
:100BA00040211248FFF7ABFB4FF4FA60FFF7FCFA65
:100BB00040210E48FFF7A1FB002404E00020074974
:100BC0000855601CC4B20A4800888442F6DB002045
:100BD0000749088000BF00BFB8E7000058000020A8
:100BE000003801400000002020000020000C0140DF
:100BF00040000020140C00080000002058000000F5
:100C00001E0B00086C0C0008580000202004000097
:100C10002E0B0008040C0220000400B7257E4200C1
:100C200000000000000000000000000000000000C4
:100C300000000000040C0220000400B444221C0048
:100C400000000000000000000000000000000000A4
:100C50000000000000000000000000010203040189
:0C0C60000203040607080902040608004D
:0400000508000131BD
:00000001FF
